:020000040800F2
:10000000F04E00206102000819230008C11F0008FB
:1000100015230008B5080008F52B000800000000B3
:10002000000000000000000000000000A101000826
:100030009D09000800000000FD01000829250008B6
:100040007B0200087B0200087B0200087B0200089C
:100050007B0200087B0200087B0200089F09000861
:100060007B0200087B020008A90900087B02000847
:100070007B0200087B0200087B0200087B0200086C
:100080007B0200087B0200087B0200087B0200085C
:100090007B0200087B0200087B0200087B0200084C
:1000A0007B0200087B0200087B0200087B0200083C
:1000B0007B0200087B020008312600087B02000852
:1000C0007B0200087B0200087B0200087B0200081C
:1000D0007B0200087B0200087B0200087B0200080C
:1000E0007B0200087B0200087B0200087B020008FC
:1000F0007B0200087B0200087B0200087B020008EC
:100100007B0200087B0200087B0200087B020008DB
:100110007B0200087B0200087B02000841260008E1
:100120007B0200087B0200087B0200087B020008BB
:100130007B0200087B0200087B0200087B020008AB
:100140007B0200087B0200087B0200087B0200089B
:100150007B0200087B0200087B0200087B0200088B
:100160007B0200087B0200087B0200087B0200087B
:100170007B0200087B0200087B02000800000000F0
:100180007B0200087B020008DFF810D000F004F9C1
:1001900000480047612E0008AFF30080F04E0020B9
:1001A0002C4B19680868B0E8F04F80F30988BFF35A
:1001B0006F8F4FF0000080F311887047000000003F
:1001C00008480068006880F308884FF0000080F35A
:1001D000148862B661B6BFF34F8FBFF36F8F00DF35
:1001E00000BF00BF08ED00E0DFF80C00016841F43B
:1001F00070010160704700BF88ED00E0EFF30980F7
:10020000BFF36F8F134B1A681EF0100F08BF20ED5D
:10021000108A20E9F04F106009B44FF0500080F3CD
:100220001188BFF34F8FBFF36F8F04F0DDF84FF0ED
:10023000000080F3118809BC19680868B0E8F04F25
:100240001EF0100F08BFB0EC108A80F30988BFF3CE
:100250006F8F704730000020EFF30580704700007B
:100260000648804706480047FEE7FEE7FEE7FEE750
:10027000FEE7FEE7FEE7FEE7FEE7FEE715260008DD
:10028000890100082DE9F05F0546002092469B4653
:1002900088460646814640241BE02846414647469C
:1002A000224600F069F853465A46C01A914110D3CD
:1002B00011461846224600F050F82D1A67EB010847
:1002C0004F4622460120002100F047F817EB0009B5
:1002D0004E41201EA4F10104DFDC484631462A4687
:1002E0004346BDE8F09F40EA01039B0703D009E0C5
:1002F00008C9121F08C0042AFAD203E011F8013B12
:1003000000F8013B521EF9D27047D2B201E000F86A
:10031000012B491EFBD270470022F6E710B51346A9
:100320000A4604461946FFF7F0FF204610BD30B5D7
:100330000B46014600202022012409E021FA02F5A3
:100340009D4205D303FA02F5491B04FA02F528443D
:10035000151EA2F10102F1DC30BD202A04DB203A97
:1003600000FA02F1002070479140C2F1200320FA08
:1003700003F3194390407047202A04DB203A21FA06
:1003800002F00021704721FA02F3D040C2F12002AE
:100390009140084319467047064C074D06E0E06857
:1003A00040F0010394E8070098471034AC42F6D3BC
:1003B000FFF7EEFE00590008205900082DE9F84F1C
:1003C000B02002F08DF800251D211C2000F012FA4B
:1003D0001CE00221084600F00DFA00BF022000F0E8
:1003E0008DF9044604F00204002CF7D1232000F01C
:1003F00085F9044604F00F06032E02DD0A2E00DA0A
:1004000005E0681CC5B20A2D00DB00E0E1E700BF93
:100410003D211C2000F0EEF90A2D02DB032000F044
:10042000C9FA1121022000F0E5F900BF022000F016
:1004300065F9044604F01104002CF7D11E2000F0E9
:1004400047FA5A2000F044FA962000F041FAA02022
:1004500002F046F8232000F051F9044604F00F069C
:10046000C4F30017242000F049F9044604F01F09E2
:10047000252000F043F900F01F0404F00F0A4FEAB2
:1004800014181B2000F03AF900901C2000F036F9F7
:10049000834617B9B8F1000F02D0042000F08AFAA1
:1004A000BDE8F88F2DE9F84FB02002F02BF80025B9
:1004B0001D211C2000F0B6F91CE00221084600F0C6
:1004C000B1F900BF022000F033F9044604F0020441
:1004D000002CF7D1232000F02BF9044604F00F067E
:1004E000032E02DD0A2E00DA05E0681CC5B20A2DD3
:1004F00000DB00E0E1E700BF3D211C2000F092F9A5
:100500000A2D02DB032000F067FA1121022000F01F
:1005100089F900BF022000F00BF9044604F0110431
:10052000002CF7D11E2000F006FA5A2000F003FA42
:10053000962000F000FAA02001F0E4FF232000F054
:10054000F7F8044604F00F06C4F30017242000F067
:10055000EFF8044604F01F09252000F0E9F800F048
:100560001F0404F00F0A4FEA14181B2000F0E0F8F3
:1005700000901C2000F0DCF8834617B9B8F1000F9A
:1005800002D0042000F028FABDE8F88F10B501244D
:1005900007E0294810F82410204600F02BF9601CD1
:1005A000C4B2042CF5DD072407E0234810F824101A
:1005B000204600F01FF9601CC4B2292CF5DD002490
:1005C00007E01E48015D22462A2000F043F9601C26
:1005D000C4B2072CF5DD2B2407E0174810F82410CF
:1005E000204600F007F9601CC4B2352CF5DD124836
:1005F00090F8DC10372000F0FDF8002407E01048E8
:10060000015D2246382000F025F9601CC4B2042C9C
:10061000F5DD392407E0084810F82410204600F0E2
:10062000E9F8601CC4B23C2CF5DD034890F8F810E2
:100630003E2000F0DFF810BD2C5700082C580008B1
:100640003458000810B5012407E0294810F8241098
:10065000204600F0E7F8601CC4B2042CF5DD072446
:1006600007E0234810F82410204600F0DBF8601C57
:10067000C4B2292CF5DD002407E01E48015D2246A6
:100680002A2000F0FFF8601CC4B2072CF5DD2B24F3
:1006900007E0174810F82410204600F0C3F8601C4B
:1006A000C4B2352CF5DD124890F8DC10372000F08C
:1006B000B9F8002407E01048015D2246382000F018
:1006C000E1F8601CC4B2042CF5DD392407E00848C9
:1006D00010F82410204600F0A5F8601CC4B23C2C91
:1006E000F5DD034890F8F8103E2000F09BF810BDAF
:1006F0002C5700082C5800083458000870B50446E0
:1007000000220821094800F0BBFA44F040042046CA
:1007100001F004FE002001F001FE0546012208213F
:10072000024800F0ADFA284670BD0000000002400B
:1007300070B5044600220121094800F0A1FA44F0F6
:100740004004204601F0FAFD002001F0F7FD0546C7
:1007500001221146024800F093FA284670BD0000BD
:100760000008024010B50021084600F043F810BD13
:1007700010B50021084600F055F810BD70B50625EB
:10078000002208210A4800F07BFA284600F094F87D
:10079000002405E00749085D00F08EF8601CC4B233
:1007A000042CF7DB01220821014800F069FA70BD32
:1007B000000002402857000870B5062500220121DC
:1007C0000A4800F05DFA284600F07CF8002405E0B5
:1007D0000749085D00F076F8601CC4B2042CF7DB12
:1007E00001221146014800F04BFA70BD000802409A
:1007F0002857000870B504460D4600220821084815
:1008000000F03EFA00BF204601F088FD284601F0C6
:1008100085FD01220821024800F032FA70BD000077
:100820000000024070B504460D4600220121084830
:1008300000F026FA00BF204601F080FD284601F0B6
:100840007DFD01221146024800F01AFA70BD000039
:100850000008024070B505460E461446074890F859
:10086000D400074A125D1043C1B23520FFF7C2FF22
:1008700031462846FFF7BEFF70BD00002C57000828
:10088000E056000870B505460E461446074890F835
:10089000D400074A125D1043C1B23520FFF7C2FFF2
:1008A00031462846FFF7BEFF70BD00002C570008F8
:1008B000E056000800BFFEE710B50446204601F0F0
:1008C0002DFD10BD10B50446204601F037FD10BDCA
:1008D0002DE9F047064631460E20FFF78BFF0C212D
:1008E0000220FFF787FF00BF0220FFF707FF044643
:1008F00004F00C04002CF7D12620FFF7FFFE04467D
:1009000004F00709C4F3C0072820FFF7F7FE0446E8
:10091000A0462920FFF7F2FE044625462D2D01DBD7
:10092000442D02DD012000F045F817B1022000F04F
:1009300041F8BDE8F0872DE9F047064631460E2024
:10094000FFF770FF0C210220FFF76CFF00BF0220B1
:10095000FFF7EEFE044604F00C04002CF7D126202D
:10096000FFF7E6FE044604F00709C4F3C007282099
:10097000FFF7DEFE0446A0462920FFF7D9FE044615
:1009800025462D2D01DB442D02DD012000F024F849
:1009900017B1022000F020F8BDE8F087704710B5CD
:1009A000022000F057F810BD10B5102000F052F8EA
:1009B00010BD0000044607E0214604A002F042F901
:1009C0004FF47A7000F01EF8F6E700006572726F5F
:1009D0007220202025640A00044607E0214604A076
:1009E00002F030F94FF47A7000F00CF8F6E70000EE
:1009F0006572726F7220202025640A0072B600BFF3
:100A0000FEE7000070B5044600F040F906462546B2
:100A1000681C10B104480078054400BF00F036F9A6
:100A2000801BA842FAD370BD2800002010B50446F0
:100A3000102C04D10548006802F058FB05E0022C98
:100A400003D10348006802F051FB10BD18000020DC
:100A50001C00002010B5044604480068204020B166
:100A6000024804602046FFF7E1FF10BD143C01403E
:100A7000F8B502460B460025002400200021DCE0EA
:100A8000012606FA01F51E6806EA0504AC4273D198
:100A90005E68012E08D05E68022E05D05E68112EB9
:100AA00002D05E68122E13D190684F000326BE401C
:100AB000B0434F00DE68BE4030439060506801266E
:100AC0008E40B0431E79C6F300168E40304350600E
:100AD000D0684F000326BE40B0434F009E68BE4022
:100AE0003043D0605E68022E02D05E68122E13D1B1
:100AF000CF0802F1200656F827004E07F70E0F2602
:100B0000BE40B0434F07FF0E1E69BE403043CF08C2
:100B100002F1200646F8270010684F000326BE4069
:100B2000B0431E7906F003064F00BE40304310600C
:100B30005E6806F08056B6F1805F7DD100BF00266A
:100B40000096404E366846F480463E4F3E603E4634
:100B5000366806F48046009600BF00BF3A4E8F0804
:100B600056F827008E07370F0F26BE40B043374E8A
:100B7000B24202D1002624E05EE0354EB24201D1FD
:100B800001261EE0334EB24201D1022619E0324E58
:100B9000B24201D1032614E0304EB24201D1042604
:100BA0000FE02F4EB24201D105260AE02D4EB2428F
:100BB00001D1062605E02C4EB24201D1072600E005
:100BC00008268F073F0FBE4030431F4E8F0846F860
:100BD0002700264E3068A0435E6806F48036B6F5DE
:100BE000803F00D12043214E3060361D3068A04345
:100BF0005E6806F40036B6F5003F00D120431B4E78
:100C0000361D3060361D3068A0435E6806F48016DD
:100C1000B6F5801F00D12043144E08363060361DD3
:100C20003068A0435E6806F40016B6F5001F00D1D8
:100C300020430E4E0C363060491C1029FFF420AFC3
:100C4000F8BD00004438024008380140000002406E
:100C50000004024000080240000C02400010024064
:100C60000014024000180240001C0240003C0140F9
:100C7000024613690B400BB1012000E000207047D1
:100C80000AB1816101E00B0483617047014800688B
:100C900070470000200000200348006803490978DD
:100CA0000844014908607047200000202800002007
:100CB00010B50D48006840F400700B490860084604
:100CC000006840F4806008600846006840F4807066
:100CD0000860032000F0C8F8002000F007F800F0DA
:100CE0004BF8002010BD0000003C024070B588B0F9
:100CF00004460025002600222146372000F076F821
:100D0000372000F063F800BF00200190164800680B
:100D100040F02000144908600846006800F02000F8
:100D2000019000BF00BF02A903A800F073F900F012
:100D300099F945000D48B5FBF0F0461E0C480D49E9
:100D4000086040F2E7310B48C16046600021016154
:100D5000816000F099FE20B9064800F0D3FE08B08B
:100D600070BD0120FBE700004038024040420F0008
:100D700000140040DC01002008B500BF00200090F6
:100D80001148006840F480400F4908600846006838
:100D900000F48040009000BF00BF00BF0020009022
:100DA000081F006840F08050091F0860084600686E
:100DB00000F08050009000BF00BF00220F21901E65
:100DC00000F014F808BD000044380240014608460F
:100DD000002809DB00F01F0301229A4043099B0011
:100DE00003F1E023C3F8002100BF70472DE9F05F55
:100DF00080460D461646002701F034FF0746394667
:100E00002A46334601F00700C0F1070ABAF1040F81
:100E100002D94FF0040A01E0C0F1070AD14600F1FF
:100E2000040ABAF1070F02D24FF0000A01E0A0F164
:100E3000030AD4464FF0010A0AFA09FAAAF1010A94
:100E40000AEA020A0AFA0CFA4FF0010B0BFA0CFB41
:100E5000ABF1010B0BEA030B4AEA0B0421464046B7
:100E600001F008FFBDE8F09F00BF00F00702064B4D
:100E700019684FF6FF031940044B0B4343EA022164
:100E8000014B196000BF70470CED00E00000FA054F
:100E900070B504460D460CB9012070BD5848006875
:100EA00000F00F00A84209D255490D7008460068AD
:100EB00000F00F00A84201D00120EEE7207800F0FA
:100EC000020002281DD1207800F00400042805D17A
:100ED0004C48006840F4E0504A490860207800F02F
:100EE0000800082805D14748006840F4604045499B
:100EF00008604448006820F0F000A16808434149B8
:100F00000860207800F00100A8B36068012807D1CC
:100F10003C4808380068C0F34040B8B90120BCE73D
:100F20006068022802D06068032807D13548083875
:100F30000068C0F3406048B90120AEE73148083886
:100F40000068C0F3400008B90120A6E72D480068FA
:100F500020F00300616808432A490860FFF796FE05
:100F6000064609E0FFF792FE801B41F28831884275
:100F700002D9032091E707E02248006800F00C0046
:100F80006168B0EB810FEDD11D48006800F00F00E3
:100F9000A84209D91A490D700846006800F00F00F0
:100FA000A84201D0012078E7207800F0040004284E
:100FB00007D11448006820F4E050E1680843114963
:100FC0000860207800F00800082808D10D48006863
:100FD00020F46040216940EAC1000A49086000F03D
:100FE00061F808490968C1F30311074A515CC84018
:100FF0000649086006480068FFF778FE00204CE7C5
:10100000003C024008380240C85800082C0000206C
:10101000240000200F2202600D4A126802F0030231
:1010200042600B4A126802F0F0028260084A1268BD
:1010300002F4E052C260064A126802F46042D2082A
:101040000261044A126802F00F020A607047000051
:1010500008380240003C0240014800687047000028
:101060002C00002000B5FFF7F7FF04490968C1F321
:101070008221034A515CC84000BD0000083802408C
:10108000D858000800B5FFF7E7FF04490968C1F325
:101090004231034A515CC84000BD0000083802409C
:1010A000D85800082DE9F047002400250026A14665
:1010B0002548006800F00C0020B1042805D008285D
:1010C0003AD105E0DFF8849039E0DFF8849036E02B
:1010D0001D48001F006800F03F041B48001F006807
:1010E00000F4800078B11A481749091F0968C1F354
:1010F0008811A0FB01700146224600233846FFF705
:10110000C1F805460EE011480F49091F0968C1F3EF
:101110008811A0FB01700146224600233846FFF7E4
:10112000B1F805460848001F0068C0F30140401CA4
:101130004600B5FBF6F902E0DFF8109000BF00BFF3
:101140004846BDE8F0870000083802400024F4005B
:1011500040787D01F8B504460CB90120F8BD20782F
:1011600000F00100002874D0F948006800F00C007D
:1011700004280DD0F648006800F00C00082813D1B0
:10118000F348001F006800F48000B0F5800F0BD119
:10119000EF4808380068C0F34040002859D0606824
:1011A000002856D10120D9E700BF6068B0F5803F24
:1011B00008D1E7480838006840F48030E44908392D
:1011C00008601EE06068B0F5A02F0DD1E048083837
:1011D000006840F48020DE4908390860084600684D
:1011E00040F4803008600CE0D9480838006820F4EA
:1011F0008030D749083908600846006820F480200C
:10120000086000BF606890B1FFF740FD054606E04A
:10121000FFF73CFD401B642801D903209EE7CC4822
:1012200008380068C0F340400028F1D011E0FFF713
:101230002DFD054606E0FFF729FD401B642801D976
:1012400003208BE7C24808380068C0F340400028FC
:10125000F1D1207800F0020002285FD1BC4800687C
:1012600000F00C0058B1BA48006800F00C000828E3
:101270001CD1B748001F006800F48000B0B9B44822
:1012800008380068C0F3400020B1E068012801D0B0
:10129000012063E7AE480838006820F0F8002169B3
:1012A00040EAC100AA490839086037E0E06800B3A5
:1012B0000120A8490860FFF7E9FC054606E0FFF7B2
:1012C000E5FC401B022801D9032047E7A048083865
:1012D0000068C0F340000028F1D09D48083800683D
:1012E00020F0F800216940EAC100994908390860F6
:1012F00014E0002097490860FFF7C8FC054606E0A7
:10130000FFF7C4FC401B022801D9032026E79048C0
:1013100008380068C0F340000028F1D1207800F0C0
:10132000080008282CD16069A8B101208A4908600A
:10133000FFF7ACFC054606E0FFF7A8FC401B0228BF
:1013400001D903200AE782486C300068C0F34000EE
:101350000028F1D014E000207F490860FFF796FCD8
:10136000054606E0FFF792FC401B022801D9032046
:10137000F4E677486C300068C0F340000028F1D1F3
:10138000207800F00400042870D10027704838301D
:10139000006800F0805090B900BF002000906C48B9
:1013A0003830006840F0805069493831086008469C
:1013B000006800F08050009000BF00BF0127674820
:1013C000006800F48070B0B96448006840F4807030
:1013D00062490860FFF75AFC054606E0FFF756FC35
:1013E000401B022801D90320B8E65C48006800F4DD
:1013F00080700028F2D000BFA068012808D15448AE
:101400006830006840F001005149683108601DE013
:10141000A06805280DD14E486830006840F00400EF
:101420004B49683108600846006840F001000860D8
:101430000CE047486830006820F0010044496831FA
:1014400008600846006820F00400086000BFA0683B
:10145000A8B1FFF71BFC054609E0FFF717FC401B8E
:1014600041F28831884202D9032077E626E03848E5
:1014700068300068C0F340000028EED013E0FFF7AA
:1014800005FC054608E0FFF701FC401B41F28831EE
:10149000884201D9032061E62D4868300068C0F316
:1014A00040000028EFD1012F07D1294838300068CB
:1014B00020F0805026493831086000BFA06900281C
:1014C00045D02348006800F00C0008285DD0A069D2
:1014D000022845D100201F490866FFF7D7FB0546C3
:1014E00006E0FFF7D3FB401B022801D9032035E6B5
:1014F000174808380068C0F340600028F1D1D4E9EB
:1015000007010843616A40EA81110122A06AC2EB27
:10151000500041EA00412C20005D41EA00600C4986
:10152000091F086001200B490866FFF7AFFB05465D
:1015300006E0FFF7ABFB401B022801D903200DE6B4
:10154000034808380068C0F340600028F1D03FE04D
:101550000838024000004742800E474200700040B9
:1015600000201C490866FFF791FB054606E0FFF7DF
:101570008DFB401B022801D90320EFE516480068C7
:10158000C0F340600028F2D122E0A069012800D118
:10159000E4E51148001D066806F48001E069814217
:1015A00014D106F03F01206A81420FD147F6C07086
:1015B0003040616A884209D106F44031A06A814214
:1015C00004D106F07061E06A814201D00120C5E5D6
:1015D0000020C3E5000047420038024010B5044631
:1015E0000CB9012010BD606A00B900BF0021A162E2
:1015F00094F8510028B9002084F85000204600F0EB
:1016000033F8022084F851002068006820F0400080
:1016100021680860D4E901010843E16808432169B1
:10162000084361690843218B01F400710843E169B3
:101630000843216A0843A16A08432168086004211D
:10164000A06901EA1040616A084321684860206887
:10165000C06920F400602168C86100206065012035
:1016600084F851000020BDE710B586B0044614216F
:1016700001A8FEF751FE45492068884230D100BFDD
:10168000002000904248006840F4805040490860C3
:101690000846006800F48050009000BF00BF00BF03
:1016A000002000903A481438006840F001003849A2
:1016B000143908600846006800F00100009000BF7F
:1016C00000BFE02001900220029000200390032040
:1016D00004900520059001A92E48FFF7C9F953E0B1
:1016E0002D49206888424FD100BF00200090284833
:1016F000001F006840F480402549091F0860084623
:10170000006800F48040009000BF00BF00BF0020D0
:1017100000901F481438006840F004001C49143938
:1017200008600846006800F00400009000BF00BF99
:1017300000BF002000900846006840F002000860EA
:101740000846006800F00200009000BF00BF0C20B7
:1017500001900220029000200390032004900520B5
:10176000059001A90D48FFF783F94FF480600190BF
:101770000220029000200390032004900520059091
:1017800001A90748FFF774F906B010BD0030014009
:101790004438024000000240003800400008024087
:1017A000000402402DE9FF5F0446884691461D462D
:1017B0000E9E012002900020019000BF94F850007E
:1017C000012803D1022004B0BDE8F09F012084F875
:1017D000500000BFFFF75AFA074694F851B060680E
:1017E0000390AA46BBF1010F0BD00398B0F5827F9E
:1017F00004D1A06810B9BBF1040F02D002200190FF
:10180000DBE0B8F1000F03D0B9F1000F00D015B93B
:1018100001200190D1E094F85100042802D0052065
:1018200084F8510000206065C4F83890E587A587EA
:10183000C4F83080E586A58620646064206800686E
:1018400000F04000402805D02068006840F04000CB
:1018500021680860E068B0F5006F4AD1606810B197
:10186000BAF1010F09D1206B00882168C860206B94
:10187000801C2063E08E401EE08633E02068806894
:1018800000F00200022810D1E08E70B10298012809
:101890000BD1206B00882168C860206B801C2063FE
:1018A000E08E401EE086002002902068806800F0F4
:1018B000010068B1E08F58B12068C068A16B088052
:1018C000A06B801CA063E08F401EE0870120029087
:1018D000FFF7DCF9C01BB04204D3701C10B1032029
:1018E00001906AE0E08E0028C8D1E08F0028C5D1C1
:1018F0004AE0606810B1BAF1010F09D1206B00789D
:1019000021680873206B401C2063E08E401EE08637
:1019100034E02068806800F00200022810D1E08ED8
:1019200070B1029801280BD1206B007821680873F0
:10193000206B401C2063E08E401EE0860020029059
:101940002068806800F0010068B1E08F58B120681D
:10195000C068A16B0870A06B401CA063E08F401EA4
:10196000E08701200290FFF791F9C01BB04201D33C
:10197000701C00B916B9032001901EE0E08E00280B
:10198000C7D1E08F0028C4D13A463146204600F046
:10199000E5FC20B101200190202060650DE0A068E9
:1019A00050B900BF002000902068C06800902068F7
:1019B0008068009000BF00BF00BF012084F8510084
:1019C00000BF002084F8500000BF0198FBE670477C
:1019D0007047000030B502460B4600BF92F83C004D
:1019E000012801D1022030BD012082F83C0000BF57
:1019F000022082F83D00106844681068816824F075
:101A000070041868044310684460184D1068A842B8
:101A10001BD01068B0F1804F17D0154D1068A84248
:101A200013D0144D1068A8420FD0134D1068A8426F
:101A30000BD0124D1068A84207D0114D1068A84273
:101A400003D0104D1068A84205D121F080015868DC
:101A5000014310688160012082F83D0000BF002032
:101A600082F83C0000BF00BFBDE70000000001405D
:101A70000004004000080040000C00400004014049
:101A8000004001400018004010B504460CB9012088
:101A900010BD94F83D0028B9002084F83C00204691
:101AA00000F00CF8022084F83D00211D206800F0B1
:101AB000CFFD012084F83D000020E9E738B5044659
:101AC0000E492068884217D100BF002000900C48C2
:101AD000006840F004000A4908600846006800F009
:101AE0000400009000BF00BF002205211E20FFF768
:101AF0007DF91E20FFF76AF938BD0000000800409C
:101B00004038024001460868C06840F001000B6898
:101B1000D8600868806800F00702062A05D00868C7
:101B2000006840F001000B681860002070472DE944
:101B3000F04104460D4600BF94F83C00012802D154
:101B40000220BDE8F081012084F83C0000BF0220A3
:101B500084F83D002068866826F0770626F47F46E4
:101B6000206886602868502833D00CDC202850D0AC
:101B700004DC00284BD0102851D149E0302849D04E
:101B800040284CD139E060282DD0702807D0B0F51E
:101B9000805F03D0B0F5005F41D10DE040E0D5E9B2
:101BA00002136A68206800F0BFFD2068866846F06E
:101BB00077062068866033E0D5E902136A682068FA
:101BC00000F0B2FD2068806840F4804021688860A1
:101BD00026E0EA686968206800F0BAFD50212068B4
:101BE00000F0ADFD1CE0EA686968206800F0C3FD04
:101BF0006021206800F0A3FD12E0EA6869682068AF
:101C000000F0A6FD4021206800F099FD08E000BF2B
:101C100000BF00BF2968206800F091FD00E000BF10
:101C200000BF012084F83D0000BF002084F83C0084
:101C300000BF00BF85E7704710B504462068006903
:101C4000C0F34000D8B12068C068C0F34000B0B114
:101C50006FF0020021680861012020772068806908
:101C600000F0030018B12046FFF7E5FF05E020462D
:101C700000F0ADF8204600F0ABF800202077206897
:101C80000069C0F38000D8B12068C068C0F380004C
:101C9000B0B16FF00400216808610220207720684D
:101CA000806900F4407018B12046FFF7C4FF05E0DA
:101CB000204600F08CF8204600F08AF800202077BB
:101CC00020680069C0F3C000D8B12068C068C0F3C4
:101CD000C000B0B16FF008002168086104202077CF
:101CE0002068C06900F0030018B12046FFF7A3FF89
:101CF00005E0204600F06BF8204600F069F800206F
:101D0000207720680069C0F30010D8B12068C0684F
:101D1000C0F30010B0B16FF0100021680861082016
:101D200020772068C06900F4407018B12046FFF7A2
:101D300082FF05E0204600F04AF8204600F048F80F
:101D4000002020772068006900F0010058B1206869
:101D5000C06800F0010030B16FF001002168086137
:101D6000204600F037F820680069C0F3C01058B171
:101D70002068C068C0F3C01030B16FF080002168E7
:101D800008612046FFF723FE20680069C0F3801039
:101D900058B12068C068C0F3801030B16FF04000C7
:101DA00021680861204600F021F820680069C0F32E
:101DB000401058B12068C068C0F3401030B16FF0D7
:101DC0002000216808612046FFF702FE10BD704721
:101DD0007047000010B5044603492068884201D1CD
:101DE000FEF75AFF10BD000000140040704710B508
:101DF00004460CB9012010BDA06900B100E000BF8D
:101E000094F8390028B9002084F83800204600F002
:101E100027F8242084F839002068C06820F4005096
:101E20002168C860204600F0BBFC2068006920F4EF
:101E30009040216808612068406920F02A002168EC
:101E400048612068C06840F400502168C8600020E4
:101E5000E063202084F8390084F83A000020CAE7C3
:101E600010B586B00446142101A8FEF755FA1B49A7
:101E70002068884230D100BF0020009018480068D8
:101E800040F01000164908600846006800F0100095
:101E9000009000BF00BF00BF002000901048143821
:101EA000006840F001000E491439086008460068D7
:101EB00000F00100009000BF00BF4FF4C06001902F
:101EC0000220029000200390032004900720059038
:101ED00001A90448FEF7CCFD06B010BD001001407A
:101EE00044380240000002402DE9F84304460D4604
:101EF00016461F464FF0000994F8390020285DD19E
:101F000005B116B90120BDE8F88300BF94F8380088
:101F1000012801D10220F6E7012084F8380000BF33
:101F20000020E063212084F83900FEF7AFFE8146EF
:101F3000A684E68400BF002084F8380000BF2BE0B0
:101F4000E08C401EE084A068B0F5805F16D14B465F
:101F5000002280212046009700F016FE08B10320E1
:101F6000D1E7A846B8F80000C0F30800216848602F
:101F7000206908B9AD1C0FE06D1C0DE04B46002236
:101F800080212046009700F0FFFD08B10320BAE74A
:101F900015F8010B21684860E08C0028D0D14B4631
:101FA000002240212046009700F0EEFD08B10320FA
:101FB000A9E7202084F839000020A4E70220A2E746
:101FC00000BFFEE710B500F037FFA02000F088FA50
:101FD000FF212420FEF70EFC3F212D20FEF70AFCF6
:101FE00062210120FEF706FC64210E20FEF702FCB0
:101FF00017212020FEF7FEFB3F210320FEF7FAFB0E
:1020000010BD10B500F022FFA02000F07BFAFF21E8
:102010002420FEF707FC3F212D20FEF703FC622160
:102020000120FEF7FFFB64210E20FEF7FBFB1721CA
:102030002020FEF7F7FB3F210320FEF7F3FB10BD46
:1020400010B5124A0121084600F0DCFF1049086073
:10205000104A0121084600F0D5FF0F4908600F4AD9
:1020600000210F4801F07CF80E4908600E4A00215B
:102070000E4801F075F80E4908600E4A00210E481E
:1020800001F06EF80D49086010BD0000A858000866
:1020900018000020B85800081C0000203C58000818
:1020A000712400080C0000206058000899240008E2
:1020B0001000002084580008B524000814000020F7
:1020C00000B587B0142102A8FEF726F900BF002052
:1020D00001904048006840F080003E490860084692
:1020E000006800F08000019000BF00BF00BF00202A
:1020F00001900846006840F0040008600846006847
:1021000000F00400019000BF00BF00BF002001905C
:102110000846006840F0010008600846006800F0CA
:102120000100019000BF00BF00BF002001900846E1
:10213000006840F0020008600846006800F00200F5
:10214000019000BF00BF002201212348FEF798FD47
:10215000002208212148FEF793FD01200290039000
:10216000002004900320059002A91B48FEF780FC84
:10217000022002901A4803900020049002A91648F9
:10218000FEF776FC082002900120039000200490C6
:102190000320059002A91148FEF76AFC1020029066
:1021A0000F4803900020049002A90C48FEF760FC41
:1021B000002205210720FEF719FE0720FEF706FE84
:1021C000002205210A20FEF711FE0A20FEF7FEFD7F
:1021D00007B000BD30380240000802400000024055
:1021E0000000211010B50E480E4908604FF48270AF
:1021F000486000210B488160C160016141614FF47A
:10220000007181611821C161002101624162816216
:102210000A21C162FFF7E2F908B1FEF7EFFB10BD3A
:1022200000300140AC00002010B50E480E49086097
:102230004FF48270486000210B488160C1600161E9
:1022400041614FF4007181610821C1610021016287
:10225000416281620A21C162FFF7C0F908B1FEF74D
:10226000CDFB10BD003800400401002000B587B050
:10227000002003900490059006900190029015486C
:102280001549086042F2CF00486000211248816081
:1022900042F20F71C160002101618161FFF7F4FB1F
:1022A00008B1FEF7ABFB4FF48050039003A90A4836
:1022B000FFF73DFC08B1FEF7A1FB00200190029062
:1022C00001A90548FFF786FB08B1FEF797FB07B0A9
:1022D00000BD0000000800405C01002010B50B4864
:1022E0000B4908604FF4E1304860002108488160E4
:1022F000C16001610C21416100218161C161FFF771
:1023000076FD08B1FEF77AFB10BD00000010014019
:102310009C01002000BFFEE700BFFEE701B582B0D0
:102320006420012301AA02A900900348FFF73AFAAA
:102330009DF804000EBD0000AC00002001B582B085
:102340006420012301AA02A900900348FFF72AFA9A
:102350009DF804000EBD0000040100207CB5044679
:102360000D461646164800681821B0FBF1F01549D5
:10237000B0FBF1F04FF47A71484301906068B0F51A
:10238000827F0DD12B46002280212046009600F04E
:102390001BF898B1606D40F02000606503207CBDA3
:1023A00000BF019800B908E00198401E0190206824
:1023B0008068C0F3C0100028F3D100BF0020EEE712
:1023C0002C00002040420F002DE9F04104460E464B
:1023D00017461D46DDF818803EE0681CD8B3FEF7AE
:1023E00055FCA0EB0800A84200D2A5BB20684068BD
:1023F00020F0E000216848606068B0F5827F0DD170
:10240000A068B0F5004F03D0A068B0F5806F05D18B
:102410002068006820F0400021680860A06AB0F5DC
:10242000005F0DD100BF2068006820F400502168D3
:1024300008602068006840F400502168086000BF10
:10244000012084F8510000BF002084F8500000BF34
:102450000320BDE8F081FFE7206880683040B0428B
:1024600001D1012000E00020B842B6D10020F0E701
:1024700000BF4FF47A710648006800F081FDC0206B
:1024800000F02EF803480068401C02490860F0E79D
:10249000180000200000002000BF4FF47A710448AB
:1024A000006800F06DFDD02000F02CF8F5E700008A
:1024B0001C00002000BF0648016806A000F0C2FB17
:1024C0000020034908604FF47A7000F0F9FCF2E74D
:1024D000000000206466646620202025640A000055
:1024E00010B50446002208210548FEF7C9FB204626
:1024F000FFF714FF012208210148FEF7C1FB10BDC0
:102500000000024010B50446002201210548FEF7F4
:10251000B7FB2046FFF712FF012211460148FEF7E4
:10252000AFFB10BD0008024010B500BF502080F383
:102530001188BFF34F8FBFF36F8F00BF02F03EFED5
:1025400018B14FF080500449086000BF002080F3AC
:10255000118800BF10BD000004ED00E000B593B08D
:10256000302107A8FDF7D8FE142102A8FDF7D4FEFC
:1025700000BF002001902548006840F080502349AA
:1025800008600846006800F08050019000BF00BF5E
:1025900000BF002001901E48006840F480401C49A4
:1025A00008600846006800F48040019000BF00BF4A
:1025B0000220079001200A9010200B9002200D901D
:1025C00000210E9108210F91A82110910221119153
:1025D0000421129107A8FEF7BDFD08B1FEF70EFA1F
:1025E0000F20029002200390002004904FF4A0508E
:1025F00005904FF480500690052102A8FEF748FC94
:1026000008B1FEF7FBF913B000BD000040380240EE
:10261000007000400548006840F4700003490860FD
:102620004FF00060014980390860704788ED00E094
:1026300010B50248FFF700FB10BD00005C01002050
:1026400010B50248FFF7F8FA10BD0000DC010020C9
:1026500010B50268294B98420ED0B0F1804F0BD0D4
:10266000274B984208D0274B984205D0264B9842DA
:1026700002D0264B984203D122F070024B681A43D5
:102680001E4B984220D0B0F1804F1DD01C4B984279
:102690001AD01C4B984217D01B4B984214D01B4B9E
:1026A000984211D01A4B98420ED01A4B98420BD038
:1026B000194B984208D0194B984205D0184B9842B4
:1026C00002D0184B984203D122F44072CB681A43CF
:1026D00022F080034C6943EA040202608B68C36203
:1026E0000B688362054B984202D0084B984201D197
:1026F0000B6903630123436110BD0000000001402A
:102700000004004000080040000C004000040140AC
:1027100000400140004401400048014000180040D2
:10272000001C00400020004030B50C46816821F4B8
:102730007F4142EA032525432943816030BD0A4693
:10274000816821F0700142F00703194381607047EE
:1027500030B50B461446026A056A25F0010505628C
:10276000816921F0F00141EA041122F00A021A43C2
:102770008161026230BD30B50B461446056A25F012
:10278000100505628169026A21F4704141EA043151
:1027900022F0A00242EA03128161026230BD000011
:1027A0002DE9F84F04462068006920F44050E168A4
:1027B0000843216808612169A068084361690843EA
:1027C000E169084300902068C06849F20C618843C1
:1027D000009908432168C8602068406920F440706F
:1027E000A169084321684861E069B0F5004F75D1DF
:1027F000E3492068884203D0E249206888426FD1CB
:10280000FEF740FC814602206168A0FB01510B46A7
:102810001920A9FB00712A463846FDF733FD6421D3
:10282000B0FBF1F04FEA001A02206168A0FB0151F1
:102830000B461920A9FB00712A463846FDF722FDF8
:10284000074602206168A0FB01510B461920A9FB35
:1028500000B12A465846FDF715FD6421B0FBF1F0A2
:1028600000EBC00101EB0010A7EB8000322101EB6F
:10287000C0006421B0FBF1F000F0F8000AEB400A60
:1028800002206168A0FB01510B461920A9FB0071D1
:102890002A463846FDF7F6FC074602206168A0FB91
:1028A00001510B461920A9FB00B12A465846FDF7F5
:1028B000E9FC6421B0FBF1F000EBC00101EB00107A
:1028C000A7EB8000322101EBC0006421B0FBF1F0E6
:1028D00000F007005044216888604FE16EE0FFE798
:1028E000FEF7C0FB814602206168A0FB01510B4648
:1028F0001920A9FB00712A463846FDF7C3FC642164
:10290000B0FBF1F04FEA001A02206168A0FB015110
:102910000B461920A9FB00712A463846FDF7B2FC88
:10292000074602206168A0FB01510B461920A9FB54
:1029300000B12A465846FDF7A5FC6421B0FBF1F032
:1029400000EBC00101EB0010A7EB8000322101EB8E
:10295000C0006421B0FBF1F000F0F8000AEB400A7F
:1029600002206168A0FB01510B461920A9FB0071F0
:102970002A463846FDF786FC074602206168A0FB20
:10298000015003461920A9FB00B12A465846FDF71D
:1029900079FC6421B0FBF1F000EBC00101EB001009
:1029A000A7EB8000322101EBC0006421B0FBF1F005
:1029B00000F00700504421688860DFE0704920681B
:1029C000884203D06F49206888426BD1FEF75AFBDA
:1029D000814604206168A0FB01510B461920A9FB28
:1029E00000712A463846FDF74DFC82460420616896
:1029F000A0FB01510B461920A9FB00712A4638465D
:102A0000FDF740FC6421B0FBF1F000EBC00101EBED
:102A10000010AAEB8000322101EB00106421B0FB12
:102A2000F1F000F0F00A04206168A0FB01500346B9
:102A30001920A9FB00712A463846FDF723FC6421C2
:102A4000B0FBF1F00AEB001A04206168A0FB015111
:102A50000B461920A9FB00712A463846FDF712FCE7
:102A6000074604206168A0FB015003461920A9FB1A
:102A700000B12A465846FDF705FC6421B0FBF1F091
:102A800000EBC00101EB0010A7EB8000322101EB4D
:102A900000106421B0FBF1F000F00F0050442168F9
:102AA00088606BE0FEF7DEFA814604206168A0FBD7
:102AB000015003461920A9FB00712A463846FDF74C
:102AC000E1FB824604206168A0FB01500346192007
:102AD000A9FB00712A463846FDF7D4FB6421B0FB00
:102AE000F1F000EBC00101EB0010AAEB80003221F5
:102AF00001EB00106421B0FBF1F000F0F00A0420BB
:102B00006168A0FB015003461920A9FB00712A4609
:102B10003846FDF7B7FB6421B0FBF1F00AEB001A71
:102B200004206168A0FB017003461920A9FB005036
:102B300001463A462846FDF7A5FB07460420616892
:102B4000A0FB015003461920A9FB00B12A465846B4
:102B5000FDF798FB6421B0FBF1F000EBC00101EB45
:102B60000010A7EB8000322101EB00106421B0FBC4
:102B7000F1F000F00F00504421688860BDE8F88F44
:102B800000100140001401402DE9F04104460D46BB
:102B900017469846069E21E0701CF8B12EB1FEF74C
:102BA00075F8A0EB0800B04218D92068C06820F47E
:102BB000D0702168C8602068406920F00100216859
:102BC0004861202084F8390084F83A0000BF0020D2
:102BD00084F8380000BF0320BDE8F0812068006859
:102BE0002840A84201D1012000E00020B842D3D003
:102BF0000020F1E700BFFEE770B50446601EC1B2D9
:102C00000320FDF70FFEE020FFF77CFC00220121EE
:102C10000A48FEF735F80520FDF754FE002505E0CB
:102C20000749485DFDF74EFE681CC5B2A542F7DBBB
:102C3000012211460148FEF723F870BD000802404A
:102C4000E85600080FB4054B10B503A9044A0298D2
:102C500000F03CF810BC5DF814FB0000212E0008C9
:102C6000A800002002480068C0F30220704700005E
:102C70000CED00E010B5002804DB0A07130E054A2E
:102C8000135406E00A07140E034A00F00F031B1F3B
:102C9000D45410BD00E400E018ED00E0EFF3118023
:102CA0007047EFF305807047EFF31080704702E044
:102CB00008C8121F08C1002AFAD1704770470020C7
:102CC00001E001C1121F002AFBD170472DE9FF4F1F
:102CD00089B09B460446002506E025280BD05A46BD
:102CE0000B999047641C6D1C20780028F5D10DB01D
:102CF0002846BDE8F08F0027B8460122474900E08A
:102D0000074314F8013F203B02FA03F00842F7D1D1
:102D100020782E2819D114F8010F47F004072A282B
:102D20000ED06FF02F022078A0F1300109290CD8C5
:102D300008EB880102EB410100EB0108641CF2E79B
:102D40000A98641C50F8048B0A9020780028CED092
:102D5000642808D0692806D075281ED05A460B99D9
:102D600090476D1C58E00A994FF00A0901C90A9171
:102D7000002802DA40422D2102E0390504D52B213A
:102D80008DF82010012103E0F90704D02021F7E796
:102D90008A4608AE0DE00021FAE70A994FF00A09C9
:102DA00001C90A91F7E74946FDF7C1FA303106F843
:102DB000011D0028F7D1ADEB060000F120097807CE
:102DC00001D44FF00108C84502DDA8EB090000E07E
:102DD00000208046002706E008A85A46C05D0B99EF
:102DE00090476D1C7F1C5745F6DB04E030205A46A7
:102DF0000B9990476D1CB8F10001A8F10108F5DCB2
:102E000005E016F8010B5A460B9990476D1CB9F175
:102E10000001A9F10109F4DC641C65E7092801003F
:102E200013B50C460223012269460248FFF75CF8FD
:102E300000201CBD9C01002010B5FDF793FCFDF7A0
:102E40009DFCFDF7A3FBFDF7B9FA10BD10B5FDF72A
:102E50008FFCFDF7B1FCFDF7F5FBFDF723FB10BD83
:102E6000FDF726FFFFF77AFBFFF72AF9FFF7BAF91C
:102E7000FFF734FAFFF7FAF9FFF7D6F9FFF7A2F8F0
:102E8000FFF7BFF84020FFF7B7FE00F035F8FFF777
:102E9000D7F800F051F80EE000BF10210648FDF70A
:102EA000E7FE0128F9D0C020FFF72CFB034800689B
:102EB000401C02490860EFE70000024000000020CB
:102EC00070B50546FFF7EDFE48B9FFF7EDFE10B906
:102ED000FFF7E4FE30B107480068022802D16FF026
:102EE000050404E0002415B1284601F035F9204618
:102EF00070BD00008000002010B5FFF7D2FE48B979
:102F0000FFF7D2FE10B9FFF7C9FE30B109480068DB
:102F1000022802D16FF0050409E00648006820B9D4
:102F2000012004490860002401E04FF0FF342046EE
:102F300010BD00008000002010B5FFF7B2FE48B9B8
:102F4000FFF7B2FE10B9FFF7A9FE30B10B480068D9
:102F5000022802D16FF005040EE00848006801283D
:102F600008D100BF00BF02200449086001F0D8F971
:102F7000002401E04FF0FF34204610BD8000002007
:102F8000F8B504460D46264600270EB93F1F33E02C
:102F9000FFF787FE48B9FFF787FE10B9FFF77EFEFF
:102FA000F0B11648006802281AD115B16FF0030776
:102FB00022E0002000906A460021304601F0D0FE59
:102FC000012802D06FF0020716E00098A0B14FF080
:102FD00080500B490860BFF34F8FBFF36F8F0BE03A
:102FE0002946304601F022FF012805D015B16FF0C7
:102FF000010701E06FF002073846F8BD80000020AD
:1030000004ED00E02DE9F84305460F4614464FF065
:103010000008FFF746FE002862D1FFF745FE10B911
:10302000FFF73CFE18B130480068022858D0002D48
:1030300056D0AF4254D84FF0FF3664B1A06820B1EB
:10304000E068502801D3012606E0A06820B9E068B6
:1030500010B9002600E00026701C70B3012D23D1AA
:10306000012E09D103200090002211460120A368FF
:1030700001F046FB804605E003220021012001F01B
:103080000FFB8046B8F1000F1DD0E7B100231A46B0
:103090001946404601F0F0FB012814D0404601F0EB
:1030A00003F84FF000080EE0012E07D139462846FC
:1030B000A26801F0C3FA804605E011E039462846CF
:1030C00001F08EFA8046B8F1000F09D014B1D4F89F
:1030D000009001E04FF000094946404600F0CEFF65
:1030E0004046BDE8F883000080000020F8B50446A3
:1030F000254600260DB9361F2CE0FFF7D2FD48B952
:10310000FFF7D2FD10B9FFF7C9FDC8B1124800683A
:10311000022815D1002000906946284601F0FCFCE9
:10312000012802D06FF0020614E0009890B14FF031
:1031300080500A490860BFF34F8FBFF36F8F09E0DB
:1031400000231A461946284601F096FB012801D0B3
:103150006FF002063046F8BD8000002004ED00E06C
:103160002DE9FF4780468946144600200390FFF76B
:1031700098FD00285AD1FFF797FD10B9FFF78EFD93
:1031800018B12B480068022850D0B8F1000F4DD07C
:10319000802618254FF0000A4FF0FF3744B320680F
:1031A00008B1D4F800A0A06900B1A5692DB1382DEF
:1031B00003D8207900F0010018B1002004B0BDE868
:1031C000F087606908B160698608A06840B1E0686E
:1031D0005C2805D3206918B1606908B1012708E0AF
:1031E000A06830B9E06820B9206910B9002700E074
:1031F0000027012F0CD12169A0684B463246CDE94A
:10320000005102905146404601F064FF03900DE0EA
:1032100067B903A8B2B24B465146CDE900504046CB
:1032200001F026FF012801D0002003900398C5E794
:10323000800000202DE9F04105460E46164807683B
:1032400016480068001D00F0D5FD681C38B936B17D
:1032500012480168091D124800F022FE1AE07C198C
:103260000E4800684460BC4207D20C480168091D42
:103270000C48006800F0FAFD0CE008480168091DE0
:103280000948006800F0F2FD08480068844201D255
:1032900006480460BDE8F0814400002030000020B2
:1032A0000C070020380000203400002060000020BF
:1032B00010B5044600F000FE24480068401C234975
:1032C00008602348006840B9214804600846006847
:1032D00001280DD100F006FA0AE01E48006838B94E
:1032E0001B480068C06AE16A884201D81848046037
:1032F00019480068401C1849086008460068606466
:103300001649E06A0968884202D91449E06A0860EF
:10331000E16A01EB8101124A02EB8100211D00F0FC
:10332000BFFD00F0F3FD0B48006868B10848006875
:10333000C06AE16A884207D24FF0805009490860AC
:10334000BFF34F8FBFF36F8F10BD00004000002010
:10335000300000204C0000205C00002048000020CD
:103360005C02002004ED00E008B500F0A5FD124865
:103370000068E8B9114800F069FD114800F066FDE9
:103380000E48104908600E480F49086000200F4B96
:103390000F4A102100900A2001F0B2F90649086096
:1033A0000846006820B10BA10348006800F066FEE3
:1033B00000F0ACFD08BD00007400002020070020D4
:1033C000340700206C000020700000204807002017
:1033D00098070020546D72510000000010B516E0EF
:1033E00000F06AFD0C48C068C468201D00F002FDB2
:1033F0000A480068401E0949086009480068401EE4
:103400000749086000F082FD204600F05FF804489C
:1034100000680028E4D110BDF8060020400000201C
:103420003C00002070B504460D46206C70B1216C44
:10343000E0680144E160D4E90210884201D32168C8
:10344000E1602846226CE168FCF74DFF70BD2DE974
:10345000F04104460F4615464FF00008A66B206C5D
:1034600048B9206800282CD1A06801F049FF8046A7
:103470000020A06025E07DB93946226C6068FCF729
:1034800032FF216C606808446060D4E90101884221
:1034900017D32068606014E03946226CE068FCF7BE
:1034A00022FF216CE068411AE1602168E0688842EF
:1034B00003D2216CA068411AE160022D01D106B14E
:1034C000761E701CA0634046BDE8F08110B504462E
:1034D00094F8590030B9206B00F036FD204600F01A
:1034E00033FD1AE094F85900012803D1204600F07A
:1034F0002BFD12E094F85900022801D1012000E0D0
:10350000002050B900BF502080F31188BFF34F8FC7
:10351000BFF36F8F00BF00BFFEE710BD01464A6AD0
:1035200022B10A6B1268C2F1380000E00020704737
:103530000146084A126812680AB9012200E0002216
:103540000A600A6822B9034A1268D268106800E06B
:10355000002070476C00002030B54FF470531748BE
:1035600000F007042CB1C01D20F00700134C041B11
:103570001B1B0246124C22600024114D6C60D018B7
:10358000083820F007000F4C206000240D4D2D68F6
:103590006C600C4D2D682C601146441A4C60094C2F
:1035A00024680C60084D4C682C60084D4C682C60F9
:1035B0004FF00044064D2C6030BD0000F00E00209E
:1035C000840000208C000020940000209000002047
:1035D0009800002000BFFFF701FF0648006801289F
:1035E000F9D94FF0805004490860BFF34F8FBFF303
:1035F0006F8FF0E75C02002004ED00E02DE9F04160
:1036000006460D4617469846069C0DB9246000E014
:103610002760E66325640121204601F0E1F884F883
:103620004C80BDE8F0812DE9F05F82460E46904661
:103630009B460A9F0C9C4FEA8801A522206BFCF751
:1036400064FEA8F10100216B01EB800929F0070954
:1036500009F0070008B9012000E0002050B900BFC0
:10366000502080F31188BFF34F8FBFF36F8F00BFDF
:1036700000BFFEE786B1002507E0715D04F134006C
:103680004155705D00B902E06D1C102DF5D300BFEF
:1036900000214320015502E0002084F83400382F37
:1036A00000D33727E762E76400202065201D00F083
:1036B000DAFB04F1180000F0D6FB2461C7F13800F2
:1036C000A06164620020606584F858005A46514643
:1036D000484600F079FB20600B9808B10B98046015
:1036E000BDE8F09F10B5002407E004EB84010F4A09
:1036F00002EB810000F0AAFB641C382CF5D30C48C7
:1037000000F0A4FB0B4800F0A1FB0B4800F09EFB6F
:103710000A4800F09BFB0A4800F098FB044809495E
:10372000086004480849086010BD00005C020020E1
:10373000BC060020D0060020E4060020F806002089
:103740000C070020340000203800002010B501468E
:10375000164800E0006803688B42FBD302464368CA
:1037600013448B4204D143684C68234443600146B0
:103770000A464B6813440468A34211D10C4C0368F9
:103780002468A34208D04B680468646823444B60F3
:1037900003681B680B6005E0054B1B680B6001E0CC
:1037A00003680B60884200D0016010BD84000020D7
:1037B0008C0000202DE9F04104460D4616461F46B8
:1037C0004FF0000865602461B5420CD8F01BA16978
:1037D000884202D34FF0010811E0211D094800681A
:1037E00000F044FB0BE0BE4204D2BD4202D34FF0D6
:1037F000010804E0211D0448006800F037FB404642
:10380000BDE8F081700000206C00002070B5054616
:1038100000F052FBA86B08B9012400E0002400F07E
:1038200075FB204670BD70B5054600F045FBA86BE2
:10383000E96B884201D1012400E0002400F066FB1E
:10384000204670BDF8B505460F461A480068C068A6
:10385000C468201D00F0CEFA94F8280000F004009F
:10386000E8B1A06941192B463A462046FFF7A2FF6E
:10387000D8B1002003462A4601460090204601F0B8
:10388000EDFE064656B900BF502080F31188BFF305
:103890004F8FBFF36F8F00BF00BFFEE705E094F8C6
:1038A000280020F0010084F828002046216A88477B
:1038B000F8BD00006C000020F0B587B0A0E00398D0
:1038C000002811DA04AE56B900BF502080F31188E9
:1038D000BFF34F8FBFF36F8F00BF00BFFEE7D6E986
:1038E0000020B168904700BF03980028E6DB059CE4
:1038F000606908B9012000E0002010B9201D00F027
:1039000079FA02A800F0DEF8054603980A2875D275
:10391000DFE800F009050739416306083A4200BFB5
:1039200000BF00BF00BF94F8280040F0010084F8F9
:1039300028000498A269811803462A462046FFF70A
:1039400039FFF8B12046216A884794F8280000F032
:103950000400B8B1002000900498A1694218002327
:103960001946204601F07AFE074657B900BF50209D
:1039700080F31188BFF34F8FBFF36F8F00BF00BF7D
:10398000FEE700BF3BE000BF94F8280020F00100F4
:1039900084F8280033E000BF94F8280040F00100CC
:1039A00084F828000498A061A06908B1012000E013
:1039B000002050B900BF502080F31188BFF34F8F13
:1039C000BFF36F8F00BF00BFFEE7A06941192B4610
:1039D0002A462046FFF7EEFE11E094F8280000F09A
:1039E000020018B9204600F0AFFA05E094F828006C
:1039F00020F0010084F8280001E0FFE700BF00BFCD
:103A0000002203A90448006801F0F6F800287FF4BA
:103A100056AF07B0F0BD000074000020F8B50546B1
:103A20000C4600F0D9FC684600F04CF806460098B9
:103A300020BB44B9B54206D801F052FD31462846B4
:103A4000FFF700FF1CE03CB10E480068006808B9B1
:103A5000012000E000200446A91B22460A48006815
:103A600000F054FB01F03CFD50B94FF08050074985
:103A70000860BFF34F8FBFF36F8F01E001F030FD9F
:103A8000F8BD0000700000207400002004ED00E08C
:103A90000A490968096809B9012100E0002121B13A
:103AA0004FF0FF31064A116006E004490968C96811
:103AB000C868034A41681160704700003400002064
:103AC0006000002070B5044601F072FB054607480F
:103AD0000068854204D200F00BF80120206001E06C
:103AE0000020206001480560284670BD7C00002051
:103AF0002DE9F84334E025480068C068056823488C
:103B00000068C068C468201D00F074F92046216A6E
:103B1000884794F8280000F0040008B3A06946190B
:103B2000AE4207D966602461211D1848006800F084
:103B30009DF915E0002003462A46014600902046E4
:103B400001F08CFD074657B900BF502080F3118863
:103B5000BFF34F8FBFF36F8F00BF00BFFEE700BF03
:103B60000A480068006808B9012000E00020002829
:103B7000C1D00648D0F800800548006803490860B5
:103B80000348C0F80080BDE8F88300006C00002006
:103B9000700000200E480068401C08B9012000E0B9
:103BA000002050B900BF502080F31188BFF34F8F21
:103BB000BFF36F8F00BF00BFFEE700BF502080F350
:103BC0001188BFF34F8FBFF36F8F00BF00BFFEE7B9
:103BD0009C00002008B500BF6846FFF7A9FC04461A
:103BE00020460099FFF71AFFFFF766FEF4E770B56D
:103BF000044600F061F994F9455010E0606A08B994
:103C0000012000E0002038B904F1240001F01CFC80
:103C100018B100F0DBFA00E003E0681E45B2002DA9
:103C2000ECDC00BFFF2084F8450000F06FF900F0E5
:103C300043F994F9445010E0206908B9012000E0EC
:103C4000002048B904F1100001F0FEFB08B100F0BB
:103C5000BDFA681E45B200E001E0002DECDC00BFBB
:103C6000FF2084F8440000F051F970BD2DE9F041C7
:103C700004464FF0000800F0AFFB4648006808B962
:103C8000FFF76AFC44480068204000286BD1D4B19B
:103C9000083404F00700B0B104F00700C0F10800D8
:103CA000044404F0070008B9012000E0002050B9E6
:103CB00000BF502080F31188BFF34F8FBFF36F8F89
:103CC00000BF00BFFEE7002C4DD03448006884429E
:103CD00049D8334E3046056801E02E462D686868A5
:103CE000A04202D228680028F7D12A4800688542FD
:103CF00039D0306800F10808286830606868001B17
:103D0000102819D92F1907F0070008B9012000E081
:103D1000002050B900BF502080F31188BFF34F8FAF
:103D2000BFF36F8F00BF00BFFEE76868001B7860BD
:103D30006C603846FFF70AFD184968680968081A78
:103D4000164908600846006816490968884203D287
:103D500012480068134908600F49686809680843F9
:103D600068600020286001F0BBFB08F0070008B97C
:103D7000012000E0002050B900BF502080F31188DE
:103D8000BFF34F8FBFF36F8F00BF00BFFEE740460A
:103D9000BDE8F0818C0000209800002090000020F9
:103DA00084000020940000200648006830B10549D6
:103DB000096801F15000096D491C01600148006863
:103DC0007047000030000020001F4FF08073036038
:103DD000001F21F001030360001F054B036014382E
:103DE0000260001F6FF0020303602038704700007C
:103DF000953B000801460A69D1E901309860D1E994
:103E0000010358605068884201D1886850600020E2
:103E100008611068401E106010687047034B036013
:103E2000034B0B60802313607047000038080020AC
:103E300094080020034B0360034B0B604FF4807326
:103E400013607047940A0020F00A002000F1080176
:103E500041604FF0FF31816000F10801C1600161F4
:103E600000210160704700210161704710B50246D2
:103E70000B685C1C0CB9106907E002F1080000E057
:103E80004068446824689C42FAD944684C604C6895
:103E9000A160886041600A611468641C146010BDF0
:103EA00042684A6093688B609368596091600861CA
:103EB00003685B1C0360704700BF502080F31188CB
:103EC000BFF34F8FBFF36F8F00BF0E480068401CD9
:103ED0000C49086008460068012812D10A480068A9
:103EE000C0B208B9012000E0002050B900BF502046
:103EF00080F31188BFF34F8FBFF36F8F00BF00BFF8
:103F0000FEE770479C00002004ED00E00D480068CB
:103F100050B900BF502080F31188BFF34F8FBFF31B
:103F20006F8F00BF00BFFEE706480068401E0549CE
:103F300008600846006820B9002080F3118800BF9F
:103F400000BF70479C00002070B506463546002E25
:103F50003FD0083D2C461F4960680968084008B1F9
:103F6000012000E0002050B900BF502080F31188EC
:103F7000BFF34F8FBFF36F8F00BF00BFFEE7206816
:103F800008B9012000E0002050B900BF502080F3A4
:103F90001188BFF34F8FBFF36F8F00BF00BFFEE7E5
:103FA0000C4960680968084098B1206888B90949D7
:103FB000606809688843606000F00EFA064960682E
:103FC00009680844044908602046FFF7BFFB01F078
:103FD00087FA70BD980000209000002000204FF06C
:103FE000E02108618861064800684FF47A71B0FBEF
:103FF000F1F0401E4FF0E021486107200861704752
:104000002C00002070B5FCF727F90446102C16D3BD
:1040100004F1E02090F8F05315480078854201DB68
:10402000012000E0002050B900BF502080F311882B
:10403000BFF34F8FBFF36F8F00BF00BFFEE70D4888
:10404000006800F4E0600C490968884201D801204A
:1040500000E0002050B900BF502080F31188BFF36A
:104060004F8FBFF36F8F00BF00BFFEE770BD000032
:10407000A00000200CED00E0A4000020024600207B
:104080000BE0084B53F8303033B9064B43F830108F
:1040900003EBC0035A6002E0401C0828F1D300BFC4
:1040A000704700001C02002070B50446254655B933
:1040B00000BF502080F31188BFF34F8FBFF36F8F85
:1040C00000BF00BFFEE7284600F008F895F846005C
:1040D00010B92846FFF738FF70BD000001460020E8
:1040E0000EE0094A02EBC00252688A4207D1002260
:1040F000054B43F8302003EBC0035A6002E0401C3C
:104100000828EED300BF70471C0200202DE9F041C3
:1041100005460E4617462C46FFF7CEFE94F944009E
:10412000401C10B9002084F8440094F94500401C5C
:1041300010B9002084F84500FFF7E8FEA06B28B90D
:104140003A46314604F1240000F062F82046FFF7B9
:104150004EFDBDE8F081000070B504460025D4B1E5
:104160001248006808B9012000E0002050B900BFE3
:10417000502080F31188BFF34F8FBFF36F8F00BFC4
:1041800000BFFEE700F028F900212046FFF752F8B3
:1041900001F0A6F905463DB94FF08050044908608A
:1041A000BFF34F8FBFF36F8F70BD0000680000201A
:1041B00004ED00E0034909680160034909684160B2
:1041C00070470000580000204400002001200149F1
:1041D000086070475400002070B504460D4654B97D
:1041E00000BF502080F31188BFF34F8FBFF36F8F54
:1041F00000BF00BFFEE70548016818312046FFF701
:1042000035FE01212846FFF715F870BD300000206B
:1042100070B505460E46144655B900BF502080F3D0
:104220001188BFF34F8FBFF36F8F00BF00BFFEE752
:104230000648016818312846FFF732FE0CB14FF0EE
:10424000FF3621463046FEF7F5FF70BD30000020F6
:104250002DE9F04706460F4634464FF00109002E7F
:1042600055D0206D50B900BF502080F31188BFF3A6
:104270004F8FBFF36F8F00BF00BFFEE7E06CB84207
:1042800001D23D4600E0E56CE06AA8423FD0206DD7
:1042900001283CD11F480068844201D0012000E081
:1042A000002050B900BF502080F31188BFF34F8F1A
:1042B000BFF36F8F00BF00BFFEE7D4F82C80E5622C
:1042C000A06900F0004010B9C5F13800A06108EB0A
:1042D0008801114A02EB81016069884201D1012005
:1042E00000E0002098B1201DFFF784FD0B49E06A33
:1042F0000968884202D90949E06A0860E16A01EB6D
:104300008101054A02EB8100211DFFF7C9FDBDE8CF
:10431000F0870000300000205C02002048000020F0
:1043200010B586B000200590049003AA04A905A842
:10433000FFF774FD0022DDE904101346CDE90021EA
:1043400002901EA11F48039A00F0C4FE1E49086097
:104350000846006808B1012400E00024012C02D1C5
:1043600001F040F90446012C15D100BF502080F324
:104370001188BFF34F8FBFF36F8F00BF4FF0FF3037
:1043800012490860012012490860002011490860A4
:1043900000F072F810E0601C08B1012000E000207D
:1043A00050B900BF502080F31188BFF34F8FBFF387
:1043B0006F8F00BF00BFFEE706B010BD49444C45FB
:1043C00000000000D53500086400002060000020D7
:1043D0004C0000204400002002480068401C0149B5
:1043E00008607047680000201E48006818B101206E
:1043F0001D49086034E000201B4908601B48016823
:104400000CE051B900BF502080F31188BFF34F8FEB
:10441000BFF36F8F00BF00BFFEE7491E01EB8100B5
:10442000134A52F8200008B9012000E000200028BB
:10443000E7D101EB81020E4B03EB82004268526828
:10444000426000F108024368934202D14268526818
:1044500042604268D268074B1A600448016000BF9E
:104460007047000068000020540000204800002031
:104470005C020020300000201CB552480068524900
:10448000884201D0012000E0002050B900BF502038
:1044900080F31188BFF34F8FBFF36F8F00BF00BF52
:1044A000FEE7484800684849491E884201D001207B
:1044B00000E0002050B900BF502080F31188BFF306
:1044C0004F8FBFF36F8F00BF00BFFEE73F49084625
:1044D00000780190FF200A4610700846007800908E
:1044E0009DF8000000F0F0009DF80020904201D1FE
:1044F000012000E0002050B900BF502080F3118857
:10450000BFF34F8FBFF36F8F00BF00BFFEE79DF873
:10451000000000F050002E4A107007202D4A106055
:1045200009E02C480068401E2A4A10609DF80000EF
:104530004006000E00909DF8000000F080008028EA
:10454000EFD024480068C0F10700042801D1012001
:1045500000E0002050B900BF502080F31188BFF365
:104560004F8FBFF36F8F00BF00BFFEE71948006891
:104570000002184A10601046008800F4E0601060E5
:10458000124A019810700F482030006840F4700003
:104590000C49203108600846006840F0704008600F
:1045A000FFF71CFD00200C490860FBF71DFE0B48BF
:1045B000006840F0404009490860FBF701FE002018
:1045C0001CBD000000ED00E071C20F4100E400E0FE
:1045D000A0000020A40000209C00002034EF00E098
:1045E00070B505460E460DB1012000E0002050B91F
:1045F00000BF502080F31188BFF34F8FBFF36F8F40
:1046000000BF00BFFEE7AE4201D8012000E000205D
:1046100050B900BF502080F31188BFF34F8FBFF314
:104620006F8F00BF00BFFEE702220021284600F086
:1046300037F8044604B1A663204670BDF8B50546B8
:104640000E4617460DB1012000E0002050B900BF12
:10465000502080F31188BFF34F8FBFF36F8F00BFDF
:1046600000BFFEE7AE4201D8012000E0002050B9B3
:1046700000BF502080F31188BFF34F8FBFF36F8FBF
:1046800000BF00BFFEE702203B460022114600901B
:10469000284600F035F8044604B1A6632046F8BD6C
:1046A0002DE9F84305460E4690460DB1012000E085
:1046B000002050B900BF502080F31188BFF34F8F06
:1046C000BFF36F8F00BF00BFFEE70EB9002701E008
:1046D00005FB06F707F15000FFF7C8FA044664B17E
:1046E000A14609F15009002084F8460043464A4695
:1046F000314628460094FEF781FF2046BDE8F88346
:104700002DE9F84380460E4617461D46DDF82090F9
:10471000B8F1000F01D0012000E0002050B900BF27
:10472000502080F31188BFF34F8FBFF36F8F00BF0E
:1047300000BFFEE70DB1012000E0002050B900BF2E
:10474000502080F31188BFF34F8FBFF36F8F00BFEE
:1047500000BFFEE707B10EB1012000E0002050B914
:1047600000BF502080F31188BFF34F8FBFF36F8FCE
:1047700000BF00BFFEE707B90EB9012000E000202E
:1047800050B900BF502080F31188BFF34F8FBFF3A3
:104790006F8F00BF00BFFEE75020009000985028A8
:1047A00001D1012000E0002050B900BF502080F36B
:1047B0001188BFF34F8FBFF36F8F00BF00BFFEE7BD
:1047C00000BF2C464CB1012084F846004B463A46C7
:1047D000314640460094FEF711FF2046BDE8F883BD
:1047E00070B505460E462C4654B900BF502080F3E4
:1047F0001188BFF34F8FBFF36F8F00BF00BFFEE77D
:10480000FFF75AFBD4E90F12206801FB0200A060F9
:104810000020A06320686060E06B401E226C21686D
:1048200000FB0211E160FF2084F8440084F8450099
:104830009EB9206908B9012000E00020A8B904F160
:10484000100000F001FE80B14FF08050094908606F
:10485000BFF34F8FBFF36F8F07E004F11000FFF736
:10486000F5FA04F12400FFF7F1FAFFF74FFB0120FE
:1048700070BD000004ED00E02DE9FF4383B0064663
:1048800088461D464FF00009344654B900BF5020F9
:1048900080F31188BFF34F8FBFF36F8F00BF00BF4E
:1048A000FEE7B8F1000F01D1206C08B9012000E04B
:1048B000002050B900BF502080F31188BFF34F8F04
:1048C000BFF36F8F00BF00BFFEE7022D02D1E06B88
:1048D000012801D1012000E0002050B900BF502084
:1048E00080F31188BFF34F8FBFF36F8F00BF00BFFE
:1048F000FEE700F04DFC08B9059808B9012000E07A
:10490000002050B900BF502080F31188BFF34F8FB3
:10491000BFF36F8F00BF00BFFEE700BFFFF7CCFA09
:10492000A06BE16B884201D3022D28D12A46414673
:104930002046FEF78CFD0746606A08B9012000E0BA
:10494000002068B904F1240000F07EFD88B14FF02A
:10495000805032490860BFF34F8FBFF36F8F08E07C
:104960003FB14FF080502D490860BFF34F8FBFF328
:104970006F8FFFF7CBFA012007B0BDE8F0830598F1
:1049800018B9FFF7C3FA0020F6E7B9F1000F04D118
:1049900001A8FFF70FFC4FF00109FFF7B7FAFFF787
:1049A0001BFDFFF789FA94F94400401C10B9002060
:1049B00084F8440094F94500401C10B9002084F8A4
:1049C0004500FFF7A3FA05A901A800F00BFBF0B919
:1049D0002046FEF728FFA0B104F110000599FFF76B
:1049E000FBFB2046FFF703F900F07AFD002895D184
:1049F0004FF0805009490860BFF34F8FBFF36F8FAE
:104A00008CE72046FFF7F3F800F06AFD86E72046C2
:104A1000FFF7EDF800F064FD0020ADE704ED00E0E5
:104A20002DE9F05F07468A4690461E463C4654B93B
:104A300000BF502080F31188BFF34F8FBFF36F8FFB
:104A400000BF00BFFEE7BAF1000F01D1206C08B92A
:104A5000012000E0002050B900BF502080F31188F1
:104A6000BFF34F8FBFF36F8F00BF00BFFEE7022E73
:104A700002D1E06B012801D1012000E0002050B9F3
:104A800000BF502080F31188BFF34F8FBFF36F8FAB
:104A900000BF00BFFEE7FFF7B5FA00BF5021EFF3FC
:104AA000118081F31188BFF34F8FBFF36F8F00BF69
:104AB0000546A06BE16B884201D3022E23D194F905
:104AC00045B0324651462046FEF7C1FC0BF10100CD
:104AD00088B9606A08B9012000E0002080B904F1BB
:104AE000240000F0B1FC58B1B8F1000F08D001204B
:104AF000C8F8000004E00BF1010040B284F8450062
:104B00004FF0010901E04FF0000900BF85F3118863
:104B100000BF4846BDE8F09F2DE9F04706460F4626
:104B2000344654B900BF502080F31188BFF34F8F33
:104B3000BFF36F8F00BF00BFFEE7206C08B90120F4
:104B400000E0002050B900BF502080F31188BFF36F
:104B50004F8FBFF36F8F00BF00BFFEE7206808B91B
:104B6000A06808B9012000E0002050B900BF502023
:104B700080F31188BFF34F8FBFF36F8F00BF00BF6B
:104B8000FEE7FFF73FFA00BF5021EFF3118081F3FA
:104B90001188BFF34F8FBFF36F8F00BF0546D4F866
:104BA0003890E06B48451ED994F945A009F1010001
:104BB000A0630AF1010070B9606A08B9012000E041
:104BC000002068B904F1240000F03EFC40B13FB180
:104BD0000120386004E00AF1010040B284F8450089
:104BE0004FF0010801E04FF0000800BF85F3118885
:104BF00000BF4046BDE8F0872DE9F74183B0054688
:104C00000E464FF000082C4654B900BF502080F3E8
:104C10001188BFF34F8FBFF36F8F00BF00BFFEE758
:104C20000EB9206C08B9012000E0002050B900BF87
:104C3000502080F31188BFF34F8FBFF36F8F00BFF9
:104C400000BFFEE700F0A4FA08B9059808B90120F2
:104C500000E0002050B900BF502080F31188BFF35E
:104C60004F8FBFF36F8F00BF00BFFEE700BFFFF79E
:104C700023F9A76BF7B131462046FEF7D3FB781E28
:104C8000A063206908B9012000E0002060B904F1A8
:104C9000100000F0D9FB38B14FF080502F49086068
:104CA000BFF34F8FBFF36F8FFFF730F9012006B0CE
:104CB000BDE8F081059818B9FFF728F90020F6E75C
:104CC000B8F1000F04D101A8FFF774FA4FF0010802
:104CD000FFF71CF9FFF780FBFFF7EEF894F94400AB
:104CE000401C10B9002084F8440094F94500401C91
:104CF00010B9002084F84500FFF708F905A901A8BC
:104D000000F070F9F0B92046FEF780FDA0B104F183
:104D100024000599FFF760FA2046FEF768FF00F0CF
:104D2000DFFB0028A3D14FF080500C490860BFF38F
:104D30004F8FBFF36F8F9AE72046FEF758FF00F0C2
:104D4000CFFB94E72046FEF752FF00F0C9FB204658
:104D5000FEF75CFD00288AD00020A8E704ED00E003
:104D60002DE9F05F064689461746344654B900BF20
:104D7000502080F31188BFF34F8FBFF36F8F00BFB8
:104D800000BFFEE7B9F1000F01D1206C08B9012086
:104D900000E0002050B900BF502080F31188BFF31D
:104DA0004F8FBFF36F8F00BF00BFFEE7FFF72AF9F9
:104DB00000BF5021EFF3118081F31188BFF34F8FB3
:104DC000BFF36F8F00BF0546D4F838A0BAF1000FCB
:104DD00022D094F944B049462046FEF723FBAAF1BD
:104DE0000100A0630BF1010070B9206908B901202E
:104DF00000E0002068B904F1100000F025FB40B18C
:104E00003FB10120386004E00BF1010040B284F8AA
:104E100044004FF0010801E04FF0000800BF85F3A7
:104E2000118800BF4046BDE8F09F00002DE9F34126
:104E300082B005464FF000082C46002654B900BF4A
:104E4000502080F31188BFF34F8FBFF36F8F00BFE7
:104E500000BFFEE7206C08B9012000E0002050B937
:104E600000BF502080F31188BFF34F8FBFF36F8FC7
:104E700000BF00BFFEE700F08BF908B9039808B93E
:104E8000012000E0002050B900BF502080F31188BD
:104E9000BFF34F8FBFF36F8F00BF00BFFEE700BFB0
:104EA000FFF70AF8A76BFFB1781EA063206810B95E
:104EB000FEF77AFFA060206908B9012000E0002019
:104EC00060B904F1100000F0BFFA38B14FF0805023
:104ED00043490860BFF34F8FBFF36F8FFFF716F89A
:104EE000012004B0BDE8F081039898B90EB9012003
:104EF00000E0002050B900BF502080F31188BFF3BC
:104F00004F8FBFF36F8F00BF00BFFEE7FEF7FEFFBE
:104F10000020E6E7B8F1000F04D16846FFF74AF930
:104F20004FF00108FEF7F2FFFFF756FAFEF7C4FF55
:104F300094F94400401C10B9002084F8440094F90E
:104F40004500401C10B9002084F84500FEF7DEFF44
:104F500003A9684600F046F840BB2046FEF756FC21
:104F6000F0B1206838B9FEF7A7FFA06800F01AFA80
:104F70000646FEF7CBFF04F124000399FFF72CF956
:104F80002046FEF734FE00F0ABFA002888D14FF03F
:104F9000805013490860BFF34F8FBFF36F8F7FE7D7
:104FA0002046FEF724FE00F09BFA79E72046FEF744
:104FB0001EFE00F095FA2046FEF728FC0028EED0F1
:104FC0005EB1FEF779FF2046FEF7A8FA074639469C
:104FD000A068FFF73DF9FEF799FF002081E7000088
:104FE00004ED00E070B505460C4655B900BF5020F1
:104FF00080F31188BFF34F8FBFF36F8F00BF00BFE7
:10500000FEE754B900BF502080F31188BFF34F8FE3
:10501000BFF36F8F00BF00BFFEE7FEF74DFF1248E2
:1050200002686868131A2068401C08B9002617E057
:105030000E4928680968884204D06868904201D8FF
:1050400001260DE02068984207D92068C01A206028
:105050002846FFF7AFF8002602E000202060012676
:10506000FEF754FF304670BD440000205800002079
:105070002DE9FF4F85B0804689461746DDE912AB22
:10508000B800FEF7F3FD064656B15C20FEF7EEFDD4
:1050900004460CB1266304E03046FEF755FF00E0FD
:1050A00000248CB1002084F85900CDE900ABCDE993
:1050B00002403A4649464046089BFEF7B4FA20466D
:1050C000FEF7F6F8012501E04FF0FF35284609B05C
:1050D000BDE8F08F2DE9F04F85B007468846914630
:1050E0009A46DDE90EB6109C0EB1012000E00020CA
:1050F00050B900BF502080F31188BFF34F8FBFF32A
:105100006F8F00BF00BFFEE70CB1012000E0002060
:1051100050B900BF502080F31188BFF34F8FBFF309
:105120006F8F00BF00BFFEE75C20039003985C28F0
:1051300001D1012000E0002050B900BF502080F3D1
:105140001188BFF34F8FBFF36F8F00BF00BFFEE723
:1051500000BFB4B1AEB125462C462E63022085F8BF
:105160005900002004A953464A46CDE900B1CDE9D3
:10517000025041463846FEF756FA2846FEF798F8A0
:1051800001E000200490049805B0BDE8F08F000015
:105190000549096809B9012005E00449096809B908
:1051A000022000E0002070474C0000206800002032
:1051B0000149086870470000440000202DE9F041D3
:1051C0004FF0000843480068002876D14248006844
:1051D000451C4148056015BB40480068006808B997
:1051E000012000E0002050B900BF502080F311885A
:1051F000BFF34F8FBFF36F8F00BF00BFFEE737488D
:105200000768374800683549086035480760354801
:105210000068401C33490860FEF73AFC00BF324882
:10522000006885423BD300BF2C480068006808B97D
:10523000012000E0002020B14FF0FF302A49086033
:105240002CE026480068C068C4686668B54202D28F
:105250002548066022E0201DFEF7CCFDA06A18B1AB
:1052600004F11800FEF7C6FD2049E06A096888428B
:1052700002D91E49E06A0860E16A01EB81011C4A1B
:1052800002EB8100211DFEF70BFE1A49E06A096856
:10529000C96A8842C8D34FF00108C5E700BF154866
:1052A0000068C06A00EB8000114951F82000012815
:1052B00001D94FF0010805E0FFE70F480068401CE6
:1052C0000D4908600D48006808B14FF001084046DC
:1052D000BDE8F08168000020440000203400002078
:1052E0003800002058000020600000204800002006
:1052F0005C020020300000205000002054000020FC
:1053000070B505462C460026002D43D02248006883
:10531000844201D1012000E0002050B900BF50209C
:1053200080F31188BFF34F8FBFF36F8F00BF00BFB3
:10533000FEE7206D50B900BF502080F31188BFF305
:105340004F8FBFF36F8F00BF00BFFEE7206D401E81
:105350002065E16CE06A88421CD0206DD0B9201D28
:10536000FEF748FDE06CE062E06AC0F13800A06141
:105370000A49E06A0968884202D90849E06A086077
:10538000E16A01EB8101064A02EB8100211DFEF773
:1053900087FD0126304670BD300000204800002007
:1053A0005C02002070B505462C460026002D42D038
:1053B0002249E06A0968C96A884235D2A06900F0CA
:1053C000004028B91D480068C06AC0F13800A061DB
:1053D000E16A01EB81011A4A02EB810160698842AE
:1053E00001D1012000E00020C0B1201DFEF702FD28
:1053F00012480068C06AE0621249E06A096888429F
:1054000002D91049E06A0860E16A01EB81010C4AA7
:1054100002EB8100211DFEF743FD03E00748006811
:10542000C06AE062012606E00449E06C0968C96AC6
:10543000884200D20126304670BD000030000020B6
:105440005C0200204800002070B50646F068C46881
:1054500054B900BF502080F31188BFF34F8FBFF3C2
:105460006F8F00BF00BFFEE704F11800FEF7C2FC1B
:1054700015480068A0B9201DFEF7BCFC1349E06A7E
:105480000968884202D91149E06A0860E16A01EBC3
:1054900081010F4A02EB8100211DFEF701FD04E0AE
:1054A00004F118010B48FEF7FBFC0B49E06A0968A0
:1054B000C96A884204D9012501200849086000E032
:1054C0000025284670BD000068000020480000202C
:1054D0005C020020E4060020300000205400002080
:1054E00070B5002400263648006850B900BF50202F
:1054F00080F31188BFF34F8FBFF36F8F00BF00BFE2
:10550000FEE7FEF7D9FC2E480068401E2C490860D3
:105510000846006800284ED12A48006800284AD072
:1055200023E02948C068C46804F11800FEF762FC53
:10553000201DFEF75FFC2549E06A0968884202D910
:105540002249E06A0860E16A01EB8101204A02EB2E
:105550008100211DFEF7A4FC1E49E06A0968C96AA2
:10556000884202D301201C4908601748006808B926
:10557000012000E000200028D3D00CB1FEF788FA0B
:105580001648056865B100BFFFF718FE10B101208D
:10559000114908606D1E002DF6D100200F490860EA
:1055A0000D48006838B1012630070D490860BFF387
:1055B0004F8FBFF36F8FFEF7A9FC304670BD000020
:1055C0006800002040000020E40600204800002081
:1055D0005C02002030000020540000205000002019
:1055E00004ED00E010B586B00024FDF7BDFE1648BE
:1055F0000068D0B100200590049003AA04A905A872
:10560000FEF718FC0222DDE904100023CDE9002199
:1056100002900EA10F48039AFFF75CFD0E49086047
:105620000846006800B1012400BF54B900BF5020F3
:1056300080F31188BFF34F8FBFF36F8F00BF00BFA0
:10564000FEE7204606B010BD74000020546D7220A5
:1056500053766300D53B0008780000202DE9FF4712
:1056600004460D4616461F46DDF830804FF000090F
:1056700054B900BF502080F31188BFF34F8FBFF3A0
:105680006F8F00BF00BFFEE71448006810B300959D
:1056900001960294062D15DAFFF77AFD022808D14B
:1056A0000023424669460D480068FFF7E5F8814649
:1056B00010E000231A46694608480068FFF7DCF846
:1056C000814607E000233A46694604480068FFF730
:1056D000A7F98146484604B0BDE8F0877400002071
:1056E0000010203040506070FF83DF1732094ED128
:1056F000E7CD8A91C6D5C4C44021184E5586F4DC46
:105700008A15A7EC92DF93533018CA34BFA2C75949
:10571000678FBA0D6DD82D7D540A57977039D27A9C
:10572000EA243385ED9A1DE05475C52A0000000077
:1057300062000000000000003F00000000000000C8
:105740000000000000000000000000000000000059
:10575000000000000000000019000000010000002F
:105760009F000000000000000E00000096000000F6
:1057700000000000040000003C0000007800000071
:10578000AF000000400000001000000060000000BA
:10579000720000006F000000C20000003D00000029
:1057A000E700000000000000F1000000070000001A
:1057B000060000002A00000060000000FF0000005A
:1057C00080000000D0000000000000007000000019
:1057D0000000000000000000DC000000F0000000FD
:1057E0003F00000047000000F7000000F00000004C
:1057F00037000000550000001500000015000000F3
:105800000000000000000000770000000000000021
:105810000000000000000000000000000000000088
:10582000000000000000000000000000344900807B
:1058300080005A000010202420000000E8580008D2
:105840000000000000000000000000000000000058
:10585000000200001800000000000000000000002E
:10586000F0580008000000000000000000000000E8
:10587000000000000002000019000000000000000D
:1058800000000000F85800080000000000000000C0
:105890000000000000000000000200001A000000EC
:1058A0000000000000000000E058000800000000B8
:1058B0000000000000000000E458000800000000A4
:1058C00000000000000000000000000000000000D8
:1058D0000102030406070809000000000102030496
:1058E000786131007861320078315461736B000067
:1058F00078325461736B000078335461736B00002D
:105900002059000800000020AC000000AE2C000868
:10591000CC590008AC000020444E0000BE2C00080A
:105920000000000000000000000000000000000077
:105930000000000000000000000000000000000067
:105940000000000010000000010000000024F4002E
:105950000000000000000000000000000000000047
:105960000000000000000000000000000000000037
:105970000000000000000000000000000000000027
:105980000000000000000000000000000000000017
:105990000000000000000000000000000000000007
:1059A00000000000000000000000000000000000F7
:1059B000000000000000000000000000AAAAAAAA3F
:0C59C000000000000000000000000000DB
:040000050800018965
:00000001FF
